{"contracts/BalanceCalc.sol":{"BalanceCalc":{"abi":[{"anonymous":false,"inputs":[{"indexed":false,"internalType":"uint256","name":"shares","type":"uint256"},{"indexed":false,"internalType":"uint256","name":"amount","type":"uint256"},{"indexed":false,"internalType":"uint256","name":"totalShares","type":"uint256"},{"indexed":false,"internalType":"uint256","name":"totalSupply","type":"uint256"}],"name":"DepositEvent","type":"event"},{"anonymous":false,"inputs":[{"indexed":false,"internalType":"address","name":"sender","type":"address"}],"name":"TokenEvent","type":"event"},{"anonymous":false,"inputs":[{"indexed":false,"internalType":"uint256","name":"shares","type":"uint256"},{"indexed":false,"internalType":"uint256","name":"amount","type":"uint256"},{"indexed":false,"internalType":"uint256","name":"totalShares","type":"uint256"},{"indexed":false,"internalType":"uint256","name":"totalSupply","type":"uint256"}],"name":"WithdrawEvent","type":"event"},{"inputs":[{"internalType":"uint256","name":"shares","type":"uint256"}],"name":"balanceOf","outputs":[{"internalType":"uint256","name":"","type":"uint256"}],"stateMutability":"view","type":"function"},{"inputs":[{"internalType":"uint256","name":"amount","type":"uint256"}],"name":"deposit","outputs":[{"internalType":"uint256","name":"","type":"uint256"}],"stateMutability":"nonpayable","type":"function"},{"inputs":[{"internalType":"uint256","name":"_totalShares","type":"uint256"},{"internalType":"uint256","name":"_totalSupply","type":"uint256"}],"name":"init","outputs":[],"stateMutability":"nonpayable","type":"function"},{"inputs":[{"internalType":"uint256","name":"amount","type":"uint256"}],"name":"sharesOf","outputs":[{"internalType":"uint256","name":"","type":"uint256"}],"stateMutability":"view","type":"function"},{"inputs":[],"name":"totalShares","outputs":[{"internalType":"uint256","name":"","type":"uint256"}],"stateMutability":"view","type":"function"},{"inputs":[],"name":"totalSupply","outputs":[{"internalType":"uint256","name":"","type":"uint256"}],"stateMutability":"view","type":"function"},{"inputs":[{"internalType":"uint256","name":"shares","type":"uint256"}],"name":"withdraw","outputs":[{"internalType":"uint256","name":"","type":"uint256"}],"stateMutability":"nonpayable","type":"function"}],"evm":{"bytecode":{"linkReferences":{},"object":"6080806040523461001f5760008055600060015561034290816100258239f35b600080fdfe6080604052600436101561001257600080fd5b6000803560e01c90816318160ddd1461008a575080632e1a7d4d146100855780633a98ef3914610080578063878ecfec1461007b5780639cc7f70814610076578063a5843f08146100715763b6b55f251461006c57600080fd5b6101fd565b6101ce565b6101a1565b61016c565b61014e565b6100a9565b346100a657806003193601126100a65760015460805260206080f35b80fd5b34610149576020366003190112610149576004356001546100ca81836102aa565b6100d760005480926102e6565b918382039182116101445781600055828103908111610144576001819055604080519485526020858101859052908501929092526060840152917f1bee28e820b283a990f1297f8cd61b80000e87cf5a878a2ed5f484c015dffb9d9080608081015b0390a1604051908152f35b610294565b600080fd5b34610149576000366003190112610149576020600054604051908152f35b346101495760203660031901126101495760206101996101906000546004356102aa565b600154906102e6565b604051908152f35b346101495760203660031901126101495760206101996101c56001546004356102aa565b600054906102e6565b3461014957604036600319011261014957633b9aca006004358181029182040361014957600055602435600155005b346101495760203660031901126101495760043560005461021e81836102aa565b61022b60015480926102e6565b91828101809111610144578060005583820180921161014457602093610139837f18df69d18fe05d45c1ebb9d5dfaa4613529460815445aa1ffd136357f6248f6f9460015560405193849387859094939260609260808301968352602083015260408201520152565b634e487b7160e01b600052601160045260246000fd5b816b019d971e4fe8401e74000000190481111582151715610149576b033b2e3c9fd0803ce800000091026b019d971e4fe8401e74000000010490565b8160011c906b033b2e3c9fd0803ce800000090818319048111841517610149570201049056fea2646970667358221220dd5974ccf81bbce4165ea6d213332354701a8515cdf36fcc68380249013220e964736f6c63430008130033","opcodes":"PUSH1 0x80 DUP1 PUSH1 0x40 MSTORE CALLVALUE PUSH2 0x1F JUMPI PUSH1 0x0 DUP1 SSTORE PUSH1 0x0 PUSH1 0x1 SSTORE PUSH2 0x342 SWAP1 DUP2 PUSH2 0x25 DUP3 CODECOPY RETURN JUMPDEST PUSH1 0x0 DUP1 REVERT INVALID PUSH1 0x80 PUSH1 0x40 MSTORE PUSH1 0x4 CALLDATASIZE LT ISZERO PUSH2 0x12 JUMPI PUSH1 0x0 DUP1 REVERT JUMPDEST PUSH1 0x0 DUP1 CALLDATALOAD PUSH1 0xE0 SHR SWAP1 DUP2 PUSH4 0x18160DDD EQ PUSH2 0x8A JUMPI POP DUP1 PUSH4 0x2E1A7D4D EQ PUSH2 0x85 JUMPI DUP1 PUSH4 0x3A98EF39 EQ PUSH2 0x80 JUMPI DUP1 PUSH4 0x878ECFEC EQ PUSH2 0x7B JUMPI DUP1 PUSH4 0x9CC7F708 EQ PUSH2 0x76 JUMPI DUP1 PUSH4 0xA5843F08 EQ PUSH2 0x71 JUMPI PUSH4 0xB6B55F25 EQ PUSH2 0x6C JUMPI PUSH1 0x0 DUP1 REVERT JUMPDEST PUSH2 0x1FD JUMP JUMPDEST PUSH2 0x1CE JUMP JUMPDEST PUSH2 0x1A1 JUMP JUMPDEST PUSH2 0x16C JUMP JUMPDEST PUSH2 0x14E JUMP JUMPDEST PUSH2 0xA9 JUMP JUMPDEST CALLVALUE PUSH2 0xA6 JUMPI DUP1 PUSH1 0x3 NOT CALLDATASIZE ADD SLT PUSH2 0xA6 JUMPI PUSH1 0x1 SLOAD PUSH1 0x80 MSTORE PUSH1 0x20 PUSH1 0x80 RETURN JUMPDEST DUP1 REVERT JUMPDEST CALLVALUE PUSH2 0x149 JUMPI PUSH1 0x20 CALLDATASIZE PUSH1 0x3 NOT ADD SLT PUSH2 0x149 JUMPI PUSH1 0x4 CALLDATALOAD PUSH1 0x1 SLOAD PUSH2 0xCA DUP2 DUP4 PUSH2 0x2AA JUMP JUMPDEST PUSH2 0xD7 PUSH1 0x0 SLOAD DUP1 SWAP3 PUSH2 0x2E6 JUMP JUMPDEST SWAP2 DUP4 DUP3 SUB SWAP2 DUP3 GT PUSH2 0x144 JUMPI DUP2 PUSH1 0x0 SSTORE DUP3 DUP2 SUB SWAP1 DUP2 GT PUSH2 0x144 JUMPI PUSH1 0x1 DUP2 SWAP1 SSTORE PUSH1 0x40 DUP1 MLOAD SWAP5 DUP6 MSTORE PUSH1 0x20 DUP6 DUP2 ADD DUP6 SWAP1 MSTORE SWAP1 DUP6 ADD SWAP3 SWAP1 SWAP3 MSTORE PUSH1 0x60 DUP5 ADD MSTORE SWAP2 PUSH32 0x1BEE28E820B283A990F1297F8CD61B80000E87CF5A878A2ED5F484C015DFFB9D SWAP1 DUP1 PUSH1 0x80 DUP2 ADD JUMPDEST SUB SWAP1 LOG1 PUSH1 0x40 MLOAD SWAP1 DUP2 MSTORE RETURN JUMPDEST PUSH2 0x294 JUMP JUMPDEST PUSH1 0x0 DUP1 REVERT JUMPDEST CALLVALUE PUSH2 0x149 JUMPI PUSH1 0x0 CALLDATASIZE PUSH1 0x3 NOT ADD SLT PUSH2 0x149 JUMPI PUSH1 0x20 PUSH1 0x0 SLOAD PUSH1 0x40 MLOAD SWAP1 DUP2 MSTORE RETURN JUMPDEST CALLVALUE PUSH2 0x149 JUMPI PUSH1 0x20 CALLDATASIZE PUSH1 0x3 NOT ADD SLT PUSH2 0x149 JUMPI PUSH1 0x20 PUSH2 0x199 PUSH2 0x190 PUSH1 0x0 SLOAD PUSH1 0x4 CALLDATALOAD PUSH2 0x2AA JUMP JUMPDEST PUSH1 0x1 SLOAD SWAP1 PUSH2 0x2E6 JUMP JUMPDEST PUSH1 0x40 MLOAD SWAP1 DUP2 MSTORE RETURN JUMPDEST CALLVALUE PUSH2 0x149 JUMPI PUSH1 0x20 CALLDATASIZE PUSH1 0x3 NOT ADD SLT PUSH2 0x149 JUMPI PUSH1 0x20 PUSH2 0x199 PUSH2 0x1C5 PUSH1 0x1 SLOAD PUSH1 0x4 CALLDATALOAD PUSH2 0x2AA JUMP JUMPDEST PUSH1 0x0 SLOAD SWAP1 PUSH2 0x2E6 JUMP JUMPDEST CALLVALUE PUSH2 0x149 JUMPI PUSH1 0x40 CALLDATASIZE PUSH1 0x3 NOT ADD SLT PUSH2 0x149 JUMPI PUSH4 0x3B9ACA00 PUSH1 0x4 CALLDATALOAD DUP2 DUP2 MUL SWAP2 DUP3 DIV SUB PUSH2 0x149 JUMPI PUSH1 0x0 SSTORE PUSH1 0x24 CALLDATALOAD PUSH1 0x1 SSTORE STOP JUMPDEST CALLVALUE PUSH2 0x149 JUMPI PUSH1 0x20 CALLDATASIZE PUSH1 0x3 NOT ADD SLT PUSH2 0x149 JUMPI PUSH1 0x4 CALLDATALOAD PUSH1 0x0 SLOAD PUSH2 0x21E DUP2 DUP4 PUSH2 0x2AA JUMP JUMPDEST PUSH2 0x22B PUSH1 0x1 SLOAD DUP1 SWAP3 PUSH2 0x2E6 JUMP JUMPDEST SWAP2 DUP3 DUP2 ADD DUP1 SWAP2 GT PUSH2 0x144 JUMPI DUP1 PUSH1 0x0 SSTORE DUP4 DUP3 ADD DUP1 SWAP3 GT PUSH2 0x144 JUMPI PUSH1 0x20 SWAP4 PUSH2 0x139 DUP4 PUSH32 0x18DF69D18FE05D45C1EBB9D5DFAA4613529460815445AA1FFD136357F6248F6F SWAP5 PUSH1 0x1 SSTORE PUSH1 0x40 MLOAD SWAP4 DUP5 SWAP4 DUP8 DUP6 SWAP1 SWAP5 SWAP4 SWAP3 PUSH1 0x60 SWAP3 PUSH1 0x80 DUP4 ADD SWAP7 DUP4 MSTORE PUSH1 0x20 DUP4 ADD MSTORE PUSH1 0x40 DUP3 ADD MSTORE ADD MSTORE JUMP JUMPDEST PUSH4 0x4E487B71 PUSH1 0xE0 SHL PUSH1 0x0 MSTORE PUSH1 0x11 PUSH1 0x4 MSTORE PUSH1 0x24 PUSH1 0x0 REVERT JUMPDEST DUP2 PUSH12 0x19D971E4FE8401E74000000 NOT DIV DUP2 GT ISZERO DUP3 ISZERO OR ISZERO PUSH2 0x149 JUMPI PUSH12 0x33B2E3C9FD0803CE8000000 SWAP2 MUL PUSH12 0x19D971E4FE8401E74000000 ADD DIV SWAP1 JUMP JUMPDEST DUP2 PUSH1 0x1 SHR SWAP1 PUSH12 0x33B2E3C9FD0803CE8000000 SWAP1 DUP2 DUP4 NOT DIV DUP2 GT DUP5 ISZERO OR PUSH2 0x149 JUMPI MUL ADD DIV SWAP1 JUMP INVALID LOG2 PUSH5 0x6970667358 0x22 SLT KECCAK256 0xDD MSIZE PUSH21 0xCCF81BBCE4165EA6D213332354701A8515CDF36FCC PUSH9 0x380249013220E96473 PUSH16 0x6C634300081300330000000000000000 "},"methodIdentifiers":{"balanceOf(uint256)":"9cc7f708","deposit(uint256)":"b6b55f25","init(uint256,uint256)":"a5843f08","sharesOf(uint256)":"878ecfec","totalShares()":"3a98ef39","totalSupply()":"18160ddd","withdraw(uint256)":"2e1a7d4d"}},"storageLayout":{"storage":[{"astId":29,"contract":"contracts/BalanceCalc.sol:BalanceCalc","label":"totalShares","offset":0,"slot":"0","type":"t_uint256"},{"astId":32,"contract":"contracts/BalanceCalc.sol:BalanceCalc","label":"totalSupply","offset":0,"slot":"1","type":"t_uint256"}],"types":{"t_uint256":{"encoding":"inplace","label":"uint256","numberOfBytes":"32"}}}}}}