{"contracts/BalanceCalc.sol":{"BalanceCalc":{"abi":[{"anonymous":false,"inputs":[{"indexed":false,"internalType":"address","name":"sender","type":"address"}],"name":"TokenEvent","type":"event"},{"inputs":[],"name":"calc","outputs":[{"internalType":"uint256","name":"","type":"uint256"}],"stateMutability":"view","type":"function"},{"inputs":[{"internalType":"uint256","name":"_shares","type":"uint256"},{"internalType":"uint256","name":"_totalShares","type":"uint256"},{"internalType":"uint256","name":"_totalSupply","type":"uint256"}],"name":"init","outputs":[],"stateMutability":"nonpayable","type":"function"},{"inputs":[],"name":"interCalc","outputs":[{"internalType":"uint256","name":"","type":"uint256"}],"stateMutability":"view","type":"function"},{"inputs":[],"name":"shares","outputs":[{"internalType":"uint256","name":"","type":"uint256"}],"stateMutability":"view","type":"function"},{"inputs":[],"name":"totalShares","outputs":[{"internalType":"uint256","name":"","type":"uint256"}],"stateMutability":"view","type":"function"},{"inputs":[],"name":"totalSupply","outputs":[{"internalType":"uint256","name":"","type":"uint256"}],"stateMutability":"view","type":"function"}],"evm":{"bytecode":{"linkReferences":{},"object":"608080604052346100245760008055600060015560006002556101b8908161002a8239f35b600080fdfe608080604052600436101561001357600080fd5b600090813560e01c90816303314efa146101395750806318160ddd1461011b5780633a98ef39146100fe5780638cd8db8a146100d857806395ae89c1146100ae576396f1b6be1461006357600080fd5b346100ab57806003193601126100ab57610081600254825490610159565b6001548015610097576020925060405191048152f35b634e487b7160e01b83526012600452602483fd5b80fd5b50346100ab57806003193601126100ab576100d0602091600254905490610159565b604051908152f35b50346100ab5760603660031901126100ab57600435600255602435815560443560015580f35b50346100ab57806003193601126100ab5760209054604051908152f35b50346100ab57806003193601126100ab576020600154604051908152f35b9050346101555781600319360112610155576020906002548152f35b5080fd5b8181029291811591840414171561016c57565b634e487b7160e01b600052601160045260246000fdfea2646970667358221220a5813626bbc24c96dcf8a3c04c219360591a7f660663df3a5fd8f915c26601dc64736f6c63430008130033","opcodes":"PUSH1 0x80 DUP1 PUSH1 0x40 MSTORE CALLVALUE PUSH2 0x24 JUMPI PUSH1 0x0 DUP1 SSTORE PUSH1 0x0 PUSH1 0x1 SSTORE PUSH1 0x0 PUSH1 0x2 SSTORE PUSH2 0x1B8 SWAP1 DUP2 PUSH2 0x2A DUP3 CODECOPY RETURN JUMPDEST PUSH1 0x0 DUP1 REVERT INVALID PUSH1 0x80 DUP1 PUSH1 0x40 MSTORE PUSH1 0x4 CALLDATASIZE LT ISZERO PUSH2 0x13 JUMPI PUSH1 0x0 DUP1 REVERT JUMPDEST PUSH1 0x0 SWAP1 DUP2 CALLDATALOAD PUSH1 0xE0 SHR SWAP1 DUP2 PUSH4 0x3314EFA EQ PUSH2 0x139 JUMPI POP DUP1 PUSH4 0x18160DDD EQ PUSH2 0x11B JUMPI DUP1 PUSH4 0x3A98EF39 EQ PUSH2 0xFE JUMPI DUP1 PUSH4 0x8CD8DB8A EQ PUSH2 0xD8 JUMPI DUP1 PUSH4 0x95AE89C1 EQ PUSH2 0xAE JUMPI PUSH4 0x96F1B6BE EQ PUSH2 0x63 JUMPI PUSH1 0x0 DUP1 REVERT JUMPDEST CALLVALUE PUSH2 0xAB JUMPI DUP1 PUSH1 0x3 NOT CALLDATASIZE ADD SLT PUSH2 0xAB JUMPI PUSH2 0x81 PUSH1 0x2 SLOAD DUP3 SLOAD SWAP1 PUSH2 0x159 JUMP JUMPDEST PUSH1 0x1 SLOAD DUP1 ISZERO PUSH2 0x97 JUMPI PUSH1 0x20 SWAP3 POP PUSH1 0x40 MLOAD SWAP2 DIV DUP2 MSTORE RETURN JUMPDEST PUSH4 0x4E487B71 PUSH1 0xE0 SHL DUP4 MSTORE PUSH1 0x12 PUSH1 0x4 MSTORE PUSH1 0x24 DUP4 REVERT JUMPDEST DUP1 REVERT JUMPDEST POP CALLVALUE PUSH2 0xAB JUMPI DUP1 PUSH1 0x3 NOT CALLDATASIZE ADD SLT PUSH2 0xAB JUMPI PUSH2 0xD0 PUSH1 0x20 SWAP2 PUSH1 0x2 SLOAD SWAP1 SLOAD SWAP1 PUSH2 0x159 JUMP JUMPDEST PUSH1 0x40 MLOAD SWAP1 DUP2 MSTORE RETURN JUMPDEST POP CALLVALUE PUSH2 0xAB JUMPI PUSH1 0x60 CALLDATASIZE PUSH1 0x3 NOT ADD SLT PUSH2 0xAB JUMPI PUSH1 0x4 CALLDATALOAD PUSH1 0x2 SSTORE PUSH1 0x24 CALLDATALOAD DUP2 SSTORE PUSH1 0x44 CALLDATALOAD PUSH1 0x1 SSTORE DUP1 RETURN JUMPDEST POP CALLVALUE PUSH2 0xAB JUMPI DUP1 PUSH1 0x3 NOT CALLDATASIZE ADD SLT PUSH2 0xAB JUMPI PUSH1 0x20 SWAP1 SLOAD PUSH1 0x40 MLOAD SWAP1 DUP2 MSTORE RETURN JUMPDEST POP CALLVALUE PUSH2 0xAB JUMPI DUP1 PUSH1 0x3 NOT CALLDATASIZE ADD SLT PUSH2 0xAB JUMPI PUSH1 0x20 PUSH1 0x1 SLOAD PUSH1 0x40 MLOAD SWAP1 DUP2 MSTORE RETURN JUMPDEST SWAP1 POP CALLVALUE PUSH2 0x155 JUMPI DUP2 PUSH1 0x3 NOT CALLDATASIZE ADD SLT PUSH2 0x155 JUMPI PUSH1 0x20 SWAP1 PUSH1 0x2 SLOAD DUP2 MSTORE RETURN JUMPDEST POP DUP1 REVERT JUMPDEST DUP2 DUP2 MUL SWAP3 SWAP2 DUP2 ISZERO SWAP2 DUP5 DIV EQ OR ISZERO PUSH2 0x16C JUMPI JUMP JUMPDEST PUSH4 0x4E487B71 PUSH1 0xE0 SHL PUSH1 0x0 MSTORE PUSH1 0x11 PUSH1 0x4 MSTORE PUSH1 0x24 PUSH1 0x0 REVERT INVALID LOG2 PUSH5 0x6970667358 0x22 SLT KECCAK256 0xA5 DUP2 CALLDATASIZE 0x26 0xBB 0xC2 0x4C SWAP7 0xDC 0xF8 LOG3 0xC0 0x4C 0x21 SWAP4 PUSH1 0x59 BYTE PUSH32 0x660663DF3A5FD8F915C26601DC64736F6C634300081300330000000000000000 "},"methodIdentifiers":{"calc()":"96f1b6be","init(uint256,uint256,uint256)":"8cd8db8a","interCalc()":"95ae89c1","shares()":"03314efa","totalShares()":"3a98ef39","totalSupply()":"18160ddd"}},"storageLayout":{"storage":[{"astId":8,"contract":"contracts/BalanceCalc.sol:BalanceCalc","label":"totalShares","offset":0,"slot":"0","type":"t_uint256"},{"astId":11,"contract":"contracts/BalanceCalc.sol:BalanceCalc","label":"totalSupply","offset":0,"slot":"1","type":"t_uint256"},{"astId":14,"contract":"contracts/BalanceCalc.sol:BalanceCalc","label":"shares","offset":0,"slot":"2","type":"t_uint256"}],"types":{"t_uint256":{"encoding":"inplace","label":"uint256","numberOfBytes":"32"}}}}}}