{"contracts/BalanceCalc.sol":{"BalanceCalc":{"abi":[{"anonymous":false,"inputs":[{"indexed":false,"internalType":"address","name":"sender","type":"address"}],"name":"TokenEvent","type":"event"},{"inputs":[],"name":"balanceOf","outputs":[{"internalType":"uint256","name":"","type":"uint256"}],"stateMutability":"view","type":"function"},{"inputs":[{"internalType":"uint256","name":"input","type":"uint256"}],"name":"divTotalShares","outputs":[{"internalType":"uint256","name":"","type":"uint256"}],"stateMutability":"view","type":"function"},{"inputs":[{"internalType":"uint256","name":"_shares","type":"uint256"},{"internalType":"uint256","name":"_totalShares","type":"uint256"},{"internalType":"uint256","name":"_totalSupply","type":"uint256"}],"name":"init","outputs":[],"stateMutability":"nonpayable","type":"function"},{"inputs":[],"name":"mulResult","outputs":[{"internalType":"uint256","name":"","type":"uint256"}],"stateMutability":"view","type":"function"},{"inputs":[],"name":"newBalanceOf","outputs":[{"internalType":"uint256","name":"","type":"uint256"}],"stateMutability":"view","type":"function"},{"inputs":[],"name":"shares","outputs":[{"internalType":"uint256","name":"","type":"uint256"}],"stateMutability":"view","type":"function"},{"inputs":[],"name":"totalShares","outputs":[{"internalType":"uint256","name":"","type":"uint256"}],"stateMutability":"view","type":"function"},{"inputs":[],"name":"totalSupply","outputs":[{"internalType":"uint256","name":"","type":"uint256"}],"stateMutability":"view","type":"function"}],"evm":{"bytecode":{"linkReferences":{},"object":"60808060405234610024576000805560006001556000600255610222908161002a8239f35b600080fdfe60806040818152600436101561001457600080fd5b600091823560e01c90816303314efa146101875750806318160ddd146101695780633a98ef391461014d578063425fbb681461012a5780634477cf7e14610109578063722713f7146100db5780638cd8db8a146100b25763b2daa4d01461007a57600080fd5b346100ae57816003193601126100ae576100a761009e6020936002549054906101cc565b600154906101a3565b9051908152f35b5080fd5b82346100d85760603660031901126100d857600435600255602435815560443560015580f35b80fd5b50346100ae57816003193601126100ae576100a7602092610101600254600154906101a3565b9054906101cc565b50346100ae5760203660031901126100ae576100a7602092546004356101cc565b50346100ae57816003193601126100ae576020906100a7600254600154906101a3565b50346100ae57816003193601126100ae57602091549051908152f35b50346100ae57816003193601126100ae576020906001549051908152f35b8390346100ae57816003193601126100ae576020906002548152f35b818102929181159184041417156101b657565b634e487b7160e01b600052601160045260246000fd5b81156101d6570490565b634e487b7160e01b600052601260045260246000fdfea26469706673582212201e42526b4a03133427506c8abbf8b0a28f58bf873b69f7afd4f74866c021471364736f6c63430008130033","opcodes":"PUSH1 0x80 DUP1 PUSH1 0x40 MSTORE CALLVALUE PUSH2 0x24 JUMPI PUSH1 0x0 DUP1 SSTORE PUSH1 0x0 PUSH1 0x1 SSTORE PUSH1 0x0 PUSH1 0x2 SSTORE PUSH2 0x222 SWAP1 DUP2 PUSH2 0x2A DUP3 CODECOPY RETURN JUMPDEST PUSH1 0x0 DUP1 REVERT INVALID PUSH1 0x80 PUSH1 0x40 DUP2 DUP2 MSTORE PUSH1 0x4 CALLDATASIZE LT ISZERO PUSH2 0x14 JUMPI PUSH1 0x0 DUP1 REVERT JUMPDEST PUSH1 0x0 SWAP2 DUP3 CALLDATALOAD PUSH1 0xE0 SHR SWAP1 DUP2 PUSH4 0x3314EFA EQ PUSH2 0x187 JUMPI POP DUP1 PUSH4 0x18160DDD EQ PUSH2 0x169 JUMPI DUP1 PUSH4 0x3A98EF39 EQ PUSH2 0x14D JUMPI DUP1 PUSH4 0x425FBB68 EQ PUSH2 0x12A JUMPI DUP1 PUSH4 0x4477CF7E EQ PUSH2 0x109 JUMPI DUP1 PUSH4 0x722713F7 EQ PUSH2 0xDB JUMPI DUP1 PUSH4 0x8CD8DB8A EQ PUSH2 0xB2 JUMPI PUSH4 0xB2DAA4D0 EQ PUSH2 0x7A JUMPI PUSH1 0x0 DUP1 REVERT JUMPDEST CALLVALUE PUSH2 0xAE JUMPI DUP2 PUSH1 0x3 NOT CALLDATASIZE ADD SLT PUSH2 0xAE JUMPI PUSH2 0xA7 PUSH2 0x9E PUSH1 0x20 SWAP4 PUSH1 0x2 SLOAD SWAP1 SLOAD SWAP1 PUSH2 0x1CC JUMP JUMPDEST PUSH1 0x1 SLOAD SWAP1 PUSH2 0x1A3 JUMP JUMPDEST SWAP1 MLOAD SWAP1 DUP2 MSTORE RETURN JUMPDEST POP DUP1 REVERT JUMPDEST DUP3 CALLVALUE PUSH2 0xD8 JUMPI PUSH1 0x60 CALLDATASIZE PUSH1 0x3 NOT ADD SLT PUSH2 0xD8 JUMPI PUSH1 0x4 CALLDATALOAD PUSH1 0x2 SSTORE PUSH1 0x24 CALLDATALOAD DUP2 SSTORE PUSH1 0x44 CALLDATALOAD PUSH1 0x1 SSTORE DUP1 RETURN JUMPDEST DUP1 REVERT JUMPDEST POP CALLVALUE PUSH2 0xAE JUMPI DUP2 PUSH1 0x3 NOT CALLDATASIZE ADD SLT PUSH2 0xAE JUMPI PUSH2 0xA7 PUSH1 0x20 SWAP3 PUSH2 0x101 PUSH1 0x2 SLOAD PUSH1 0x1 SLOAD SWAP1 PUSH2 0x1A3 JUMP JUMPDEST SWAP1 SLOAD SWAP1 PUSH2 0x1CC JUMP JUMPDEST POP CALLVALUE PUSH2 0xAE JUMPI PUSH1 0x20 CALLDATASIZE PUSH1 0x3 NOT ADD SLT PUSH2 0xAE JUMPI PUSH2 0xA7 PUSH1 0x20 SWAP3 SLOAD PUSH1 0x4 CALLDATALOAD PUSH2 0x1CC JUMP JUMPDEST POP CALLVALUE PUSH2 0xAE JUMPI DUP2 PUSH1 0x3 NOT CALLDATASIZE ADD SLT PUSH2 0xAE JUMPI PUSH1 0x20 SWAP1 PUSH2 0xA7 PUSH1 0x2 SLOAD PUSH1 0x1 SLOAD SWAP1 PUSH2 0x1A3 JUMP JUMPDEST POP CALLVALUE PUSH2 0xAE JUMPI DUP2 PUSH1 0x3 NOT CALLDATASIZE ADD SLT PUSH2 0xAE JUMPI PUSH1 0x20 SWAP2 SLOAD SWAP1 MLOAD SWAP1 DUP2 MSTORE RETURN JUMPDEST POP CALLVALUE PUSH2 0xAE JUMPI DUP2 PUSH1 0x3 NOT CALLDATASIZE ADD SLT PUSH2 0xAE JUMPI PUSH1 0x20 SWAP1 PUSH1 0x1 SLOAD SWAP1 MLOAD SWAP1 DUP2 MSTORE RETURN JUMPDEST DUP4 SWAP1 CALLVALUE PUSH2 0xAE JUMPI DUP2 PUSH1 0x3 NOT CALLDATASIZE ADD SLT PUSH2 0xAE JUMPI PUSH1 0x20 SWAP1 PUSH1 0x2 SLOAD DUP2 MSTORE RETURN JUMPDEST DUP2 DUP2 MUL SWAP3 SWAP2 DUP2 ISZERO SWAP2 DUP5 DIV EQ OR ISZERO PUSH2 0x1B6 JUMPI JUMP JUMPDEST PUSH4 0x4E487B71 PUSH1 0xE0 SHL PUSH1 0x0 MSTORE PUSH1 0x11 PUSH1 0x4 MSTORE PUSH1 0x24 PUSH1 0x0 REVERT JUMPDEST DUP2 ISZERO PUSH2 0x1D6 JUMPI DIV SWAP1 JUMP JUMPDEST PUSH4 0x4E487B71 PUSH1 0xE0 SHL PUSH1 0x0 MSTORE PUSH1 0x12 PUSH1 0x4 MSTORE PUSH1 0x24 PUSH1 0x0 REVERT INVALID LOG2 PUSH5 0x6970667358 0x22 SLT KECCAK256 0x1E TIMESTAMP MSTORE PUSH12 0x4A03133427506C8ABBF8B0A2 DUP16 PC 0xBF DUP8 EXTCODESIZE PUSH10 0xF7AFD4F74866C0214713 PUSH5 0x736F6C6343 STOP ADDMOD SGT STOP CALLER "},"methodIdentifiers":{"balanceOf()":"722713f7","divTotalShares(uint256)":"4477cf7e","init(uint256,uint256,uint256)":"8cd8db8a","mulResult()":"425fbb68","newBalanceOf()":"b2daa4d0","shares()":"03314efa","totalShares()":"3a98ef39","totalSupply()":"18160ddd"}},"storageLayout":{"storage":[{"astId":8,"contract":"contracts/BalanceCalc.sol:BalanceCalc","label":"totalShares","offset":0,"slot":"0","type":"t_uint256"},{"astId":11,"contract":"contracts/BalanceCalc.sol:BalanceCalc","label":"totalSupply","offset":0,"slot":"1","type":"t_uint256"},{"astId":14,"contract":"contracts/BalanceCalc.sol:BalanceCalc","label":"shares","offset":0,"slot":"2","type":"t_uint256"}],"types":{"t_uint256":{"encoding":"inplace","label":"uint256","numberOfBytes":"32"}}}}}}