{"contracts/InvestigationHelper.sol":{"InvestigationHelper":{"abi":[{"anonymous":false,"inputs":[{"indexed":false,"internalType":"address","name":"sender","type":"address"}],"name":"TokenEvent","type":"event"},{"inputs":[{"internalType":"string","name":"input","type":"string"}],"name":"echo","outputs":[{"internalType":"string","name":"","type":"string"}],"stateMutability":"pure","type":"function"},{"inputs":[],"name":"emitEvent","outputs":[],"stateMutability":"nonpayable","type":"function"}],"evm":{"bytecode":{"linkReferences":{},"object":"60808060405234610016576101a9908161001c8239f35b600080fdfe60806040818152600436101561001457600080fd5b600091823560e01c9081637b0cb83914610136575063f15da7291461003857600080fd5b34610132576020918260031936011261012f5760043567ffffffffffffffff9182821161012f573660238301121561012f57816004013583811161011b57845192601f199485603f81601f860116011685019085821090821117610107578652818452366024838301011161010357818394959392602489930183880137850101528351948592818452845191828186015281955b8387106100eb5750508394508582601f949501015201168101030190f35b868101820151898801890152958101958895506100cd565b8280fd5b634e487b7160e01b84526041600452602484fd5b634e487b7160e01b82526041600452602482fd5b80fd5b5080fd5b83903461013257816003193601126101325760207f83da2df33b6342a13d208d719670068e5c5d7951aeb7a67eec1d116d94f6f43391338152a180f3fea2646970667358221220ec290e5daa989fe23170b3f18c564777951cabf54a18781d552a82f21006e03964736f6c63430008130033","opcodes":"PUSH1 0x80 DUP1 PUSH1 0x40 MSTORE CALLVALUE PUSH2 0x16 JUMPI PUSH2 0x1A9 SWAP1 DUP2 PUSH2 0x1C DUP3 CODECOPY RETURN JUMPDEST PUSH1 0x0 DUP1 REVERT INVALID PUSH1 0x80 PUSH1 0x40 DUP2 DUP2 MSTORE PUSH1 0x4 CALLDATASIZE LT ISZERO PUSH2 0x14 JUMPI PUSH1 0x0 DUP1 REVERT JUMPDEST PUSH1 0x0 SWAP2 DUP3 CALLDATALOAD PUSH1 0xE0 SHR SWAP1 DUP2 PUSH4 0x7B0CB839 EQ PUSH2 0x136 JUMPI POP PUSH4 0xF15DA729 EQ PUSH2 0x38 JUMPI PUSH1 0x0 DUP1 REVERT JUMPDEST CALLVALUE PUSH2 0x132 JUMPI PUSH1 0x20 SWAP2 DUP3 PUSH1 0x3 NOT CALLDATASIZE ADD SLT PUSH2 0x12F JUMPI PUSH1 0x4 CALLDATALOAD PUSH8 0xFFFFFFFFFFFFFFFF SWAP2 DUP3 DUP3 GT PUSH2 0x12F JUMPI CALLDATASIZE PUSH1 0x23 DUP4 ADD SLT ISZERO PUSH2 0x12F JUMPI DUP2 PUSH1 0x4 ADD CALLDATALOAD DUP4 DUP2 GT PUSH2 0x11B JUMPI DUP5 MLOAD SWAP3 PUSH1 0x1F NOT SWAP5 DUP6 PUSH1 0x3F DUP2 PUSH1 0x1F DUP7 ADD AND ADD AND DUP6 ADD SWAP1 DUP6 DUP3 LT SWAP1 DUP3 GT OR PUSH2 0x107 JUMPI DUP7 MSTORE DUP2 DUP5 MSTORE CALLDATASIZE PUSH1 0x24 DUP4 DUP4 ADD ADD GT PUSH2 0x103 JUMPI DUP2 DUP4 SWAP5 SWAP6 SWAP4 SWAP3 PUSH1 0x24 DUP10 SWAP4 ADD DUP4 DUP9 ADD CALLDATACOPY DUP6 ADD ADD MSTORE DUP4 MLOAD SWAP5 DUP6 SWAP3 DUP2 DUP5 MSTORE DUP5 MLOAD SWAP2 DUP3 DUP2 DUP7 ADD MSTORE DUP2 SWAP6 JUMPDEST DUP4 DUP8 LT PUSH2 0xEB JUMPI POP POP DUP4 SWAP5 POP DUP6 DUP3 PUSH1 0x1F SWAP5 SWAP6 ADD ADD MSTORE ADD AND DUP2 ADD SUB ADD SWAP1 RETURN JUMPDEST DUP7 DUP2 ADD DUP3 ADD MLOAD DUP10 DUP9 ADD DUP10 ADD MSTORE SWAP6 DUP2 ADD SWAP6 DUP9 SWAP6 POP PUSH2 0xCD JUMP JUMPDEST DUP3 DUP1 REVERT JUMPDEST PUSH4 0x4E487B71 PUSH1 0xE0 SHL DUP5 MSTORE PUSH1 0x41 PUSH1 0x4 MSTORE PUSH1 0x24 DUP5 REVERT JUMPDEST PUSH4 0x4E487B71 PUSH1 0xE0 SHL DUP3 MSTORE PUSH1 0x41 PUSH1 0x4 MSTORE PUSH1 0x24 DUP3 REVERT JUMPDEST DUP1 REVERT JUMPDEST POP DUP1 REVERT JUMPDEST DUP4 SWAP1 CALLVALUE PUSH2 0x132 JUMPI DUP2 PUSH1 0x3 NOT CALLDATASIZE ADD SLT PUSH2 0x132 JUMPI PUSH1 0x20 PUSH32 0x83DA2DF33B6342A13D208D719670068E5C5D7951AEB7A67EEC1D116D94F6F433 SWAP2 CALLER DUP2 MSTORE LOG1 DUP1 RETURN INVALID LOG2 PUSH5 0x6970667358 0x22 SLT KECCAK256 0xEC 0x29 0xE 0x5D 0xAA SWAP9 SWAP16 0xE2 BALANCE PUSH17 0xB3F18C564777951CABF54A18781D552A82 CALLCODE LT MOD 0xE0 CODECOPY PUSH5 0x736F6C6343 STOP ADDMOD SGT STOP CALLER "},"methodIdentifiers":{"echo(string)":"f15da729","emitEvent()":"7b0cb839"}},"storageLayout":{"storage":[],"types":null}}}}