{"contracts/BalanceCalc.sol":{"BalanceCalc":{"abi":[{"anonymous":false,"inputs":[{"indexed":false,"internalType":"address","name":"sender","type":"address"}],"name":"TokenEvent","type":"event"},{"inputs":[],"name":"balanceOf","outputs":[{"internalType":"uint256","name":"","type":"uint256"}],"stateMutability":"view","type":"function"},{"inputs":[{"internalType":"uint256","name":"input","type":"uint256"}],"name":"divTotalShares","outputs":[{"internalType":"uint256","name":"","type":"uint256"}],"stateMutability":"view","type":"function"},{"inputs":[{"internalType":"uint256","name":"_shares","type":"uint256"},{"internalType":"uint256","name":"_totalShares","type":"uint256"},{"internalType":"uint256","name":"_totalSupply","type":"uint256"}],"name":"init","outputs":[],"stateMutability":"nonpayable","type":"function"},{"inputs":[],"name":"mulResult","outputs":[{"internalType":"uint256","name":"","type":"uint256"}],"stateMutability":"view","type":"function"},{"inputs":[],"name":"newBalanceOf","outputs":[{"internalType":"uint256","name":"","type":"uint256"}],"stateMutability":"view","type":"function"},{"inputs":[],"name":"shares","outputs":[{"internalType":"uint256","name":"","type":"uint256"}],"stateMutability":"view","type":"function"},{"inputs":[{"internalType":"uint256","name":"amount","type":"uint256"}],"name":"sharesOf","outputs":[{"internalType":"uint256","name":"","type":"uint256"}],"stateMutability":"view","type":"function"},{"inputs":[],"name":"totalShares","outputs":[{"internalType":"uint256","name":"","type":"uint256"}],"stateMutability":"view","type":"function"},{"inputs":[],"name":"totalSupply","outputs":[{"internalType":"uint256","name":"","type":"uint256"}],"stateMutability":"view","type":"function"}],"evm":{"bytecode":{"linkReferences":{},"object":"6080806040523461002457600080556000600155600060025561030e908161002a8239f35b600080fdfe6080604052600436101561001257600080fd5b6000803560e01c90816303314efa146100aa5750806318160ddd146100a55780633a98ef39146100a0578063425fbb681461009b5780634477cf7e14610096578063722713f714610091578063878ecfec1461008c5780638cd8db8a146100875763b2daa4d01461008257600080fd5b6101e0565b6101bb565b61018b565b610155565b610134565b61010a565b6100ec565b6100c9565b346100c657806003193601126100c65760025460805260206080f35b80fd5b346100e75760003660031901126100e7576020600154604051908152f35b600080fd5b346100e75760003660031901126100e7576020600054604051908152f35b346100e75760003660031901126100e757602061012c6002546001549061022e565b604051908152f35b346100e75760203660031901126100e757602061012c60005460043561020e565b346100e75760003660031901126100e757602061012c61018661017d60025460015490610257565b60005490610293565b6102b9565b346100e75760203660031901126100e757602061012c6101866101b2600054600435610257565b60015490610293565b346100e75760603660031901126100e757600435600255602435600055604435600155005b346100e75760003660031901126100e757602061012c6102056002546000549061020e565b6001549061022e565b8115610218570490565b634e487b7160e01b600052601260045260246000fd5b8181029291811591840414171561024157565b634e487b7160e01b600052601160045260246000fd5b816b019d971e4fe8401e740000001904811115821517156100e7576b033b2e3c9fd0803ce800000091026b019d971e4fe8401e74000000010490565b8160011c906b033b2e3c9fd0803ce8000000908183190481118415176100e75702010490565b90631dcd6500633b9aca00808404930610156102d157565b906001019056fea2646970667358221220252d73c7e3adc5b1c96734b9ba6e5033d1feef2f5ff74e96f3137b9d7cb0145a64736f6c63430008130033","opcodes":"PUSH1 0x80 DUP1 PUSH1 0x40 MSTORE CALLVALUE PUSH2 0x24 JUMPI PUSH1 0x0 DUP1 SSTORE PUSH1 0x0 PUSH1 0x1 SSTORE PUSH1 0x0 PUSH1 0x2 SSTORE PUSH2 0x30E SWAP1 DUP2 PUSH2 0x2A DUP3 CODECOPY RETURN JUMPDEST PUSH1 0x0 DUP1 REVERT INVALID PUSH1 0x80 PUSH1 0x40 MSTORE PUSH1 0x4 CALLDATASIZE LT ISZERO PUSH2 0x12 JUMPI PUSH1 0x0 DUP1 REVERT JUMPDEST PUSH1 0x0 DUP1 CALLDATALOAD PUSH1 0xE0 SHR SWAP1 DUP2 PUSH4 0x3314EFA EQ PUSH2 0xAA JUMPI POP DUP1 PUSH4 0x18160DDD EQ PUSH2 0xA5 JUMPI DUP1 PUSH4 0x3A98EF39 EQ PUSH2 0xA0 JUMPI DUP1 PUSH4 0x425FBB68 EQ PUSH2 0x9B JUMPI DUP1 PUSH4 0x4477CF7E EQ PUSH2 0x96 JUMPI DUP1 PUSH4 0x722713F7 EQ PUSH2 0x91 JUMPI DUP1 PUSH4 0x878ECFEC EQ PUSH2 0x8C JUMPI DUP1 PUSH4 0x8CD8DB8A EQ PUSH2 0x87 JUMPI PUSH4 0xB2DAA4D0 EQ PUSH2 0x82 JUMPI PUSH1 0x0 DUP1 REVERT JUMPDEST PUSH2 0x1E0 JUMP JUMPDEST PUSH2 0x1BB JUMP JUMPDEST PUSH2 0x18B JUMP JUMPDEST PUSH2 0x155 JUMP JUMPDEST PUSH2 0x134 JUMP JUMPDEST PUSH2 0x10A JUMP JUMPDEST PUSH2 0xEC JUMP JUMPDEST PUSH2 0xC9 JUMP JUMPDEST CALLVALUE PUSH2 0xC6 JUMPI DUP1 PUSH1 0x3 NOT CALLDATASIZE ADD SLT PUSH2 0xC6 JUMPI PUSH1 0x2 SLOAD PUSH1 0x80 MSTORE PUSH1 0x20 PUSH1 0x80 RETURN JUMPDEST DUP1 REVERT JUMPDEST CALLVALUE PUSH2 0xE7 JUMPI PUSH1 0x0 CALLDATASIZE PUSH1 0x3 NOT ADD SLT PUSH2 0xE7 JUMPI PUSH1 0x20 PUSH1 0x1 SLOAD PUSH1 0x40 MLOAD SWAP1 DUP2 MSTORE RETURN JUMPDEST PUSH1 0x0 DUP1 REVERT JUMPDEST CALLVALUE PUSH2 0xE7 JUMPI PUSH1 0x0 CALLDATASIZE PUSH1 0x3 NOT ADD SLT PUSH2 0xE7 JUMPI PUSH1 0x20 PUSH1 0x0 SLOAD PUSH1 0x40 MLOAD SWAP1 DUP2 MSTORE RETURN JUMPDEST CALLVALUE PUSH2 0xE7 JUMPI PUSH1 0x0 CALLDATASIZE PUSH1 0x3 NOT ADD SLT PUSH2 0xE7 JUMPI PUSH1 0x20 PUSH2 0x12C PUSH1 0x2 SLOAD PUSH1 0x1 SLOAD SWAP1 PUSH2 0x22E JUMP JUMPDEST PUSH1 0x40 MLOAD SWAP1 DUP2 MSTORE RETURN JUMPDEST CALLVALUE PUSH2 0xE7 JUMPI PUSH1 0x20 CALLDATASIZE PUSH1 0x3 NOT ADD SLT PUSH2 0xE7 JUMPI PUSH1 0x20 PUSH2 0x12C PUSH1 0x0 SLOAD PUSH1 0x4 CALLDATALOAD PUSH2 0x20E JUMP JUMPDEST CALLVALUE PUSH2 0xE7 JUMPI PUSH1 0x0 CALLDATASIZE PUSH1 0x3 NOT ADD SLT PUSH2 0xE7 JUMPI PUSH1 0x20 PUSH2 0x12C PUSH2 0x186 PUSH2 0x17D PUSH1 0x2 SLOAD PUSH1 0x1 SLOAD SWAP1 PUSH2 0x257 JUMP JUMPDEST PUSH1 0x0 SLOAD SWAP1 PUSH2 0x293 JUMP JUMPDEST PUSH2 0x2B9 JUMP JUMPDEST CALLVALUE PUSH2 0xE7 JUMPI PUSH1 0x20 CALLDATASIZE PUSH1 0x3 NOT ADD SLT PUSH2 0xE7 JUMPI PUSH1 0x20 PUSH2 0x12C PUSH2 0x186 PUSH2 0x1B2 PUSH1 0x0 SLOAD PUSH1 0x4 CALLDATALOAD PUSH2 0x257 JUMP JUMPDEST PUSH1 0x1 SLOAD SWAP1 PUSH2 0x293 JUMP JUMPDEST CALLVALUE PUSH2 0xE7 JUMPI PUSH1 0x60 CALLDATASIZE PUSH1 0x3 NOT ADD SLT PUSH2 0xE7 JUMPI PUSH1 0x4 CALLDATALOAD PUSH1 0x2 SSTORE PUSH1 0x24 CALLDATALOAD PUSH1 0x0 SSTORE PUSH1 0x44 CALLDATALOAD PUSH1 0x1 SSTORE STOP JUMPDEST CALLVALUE PUSH2 0xE7 JUMPI PUSH1 0x0 CALLDATASIZE PUSH1 0x3 NOT ADD SLT PUSH2 0xE7 JUMPI PUSH1 0x20 PUSH2 0x12C PUSH2 0x205 PUSH1 0x2 SLOAD PUSH1 0x0 SLOAD SWAP1 PUSH2 0x20E JUMP JUMPDEST PUSH1 0x1 SLOAD SWAP1 PUSH2 0x22E JUMP JUMPDEST DUP2 ISZERO PUSH2 0x218 JUMPI DIV SWAP1 JUMP JUMPDEST PUSH4 0x4E487B71 PUSH1 0xE0 SHL PUSH1 0x0 MSTORE PUSH1 0x12 PUSH1 0x4 MSTORE PUSH1 0x24 PUSH1 0x0 REVERT JUMPDEST DUP2 DUP2 MUL SWAP3 SWAP2 DUP2 ISZERO SWAP2 DUP5 DIV EQ OR ISZERO PUSH2 0x241 JUMPI JUMP JUMPDEST PUSH4 0x4E487B71 PUSH1 0xE0 SHL PUSH1 0x0 MSTORE PUSH1 0x11 PUSH1 0x4 MSTORE PUSH1 0x24 PUSH1 0x0 REVERT JUMPDEST DUP2 PUSH12 0x19D971E4FE8401E74000000 NOT DIV DUP2 GT ISZERO DUP3 ISZERO OR ISZERO PUSH2 0xE7 JUMPI PUSH12 0x33B2E3C9FD0803CE8000000 SWAP2 MUL PUSH12 0x19D971E4FE8401E74000000 ADD DIV SWAP1 JUMP JUMPDEST DUP2 PUSH1 0x1 SHR SWAP1 PUSH12 0x33B2E3C9FD0803CE8000000 SWAP1 DUP2 DUP4 NOT DIV DUP2 GT DUP5 ISZERO OR PUSH2 0xE7 JUMPI MUL ADD DIV SWAP1 JUMP JUMPDEST SWAP1 PUSH4 0x1DCD6500 PUSH4 0x3B9ACA00 DUP1 DUP5 DIV SWAP4 MOD LT ISZERO PUSH2 0x2D1 JUMPI JUMP JUMPDEST SWAP1 PUSH1 0x1 ADD SWAP1 JUMP INVALID LOG2 PUSH5 0x6970667358 0x22 SLT KECCAK256 0x25 0x2D PUSH20 0xC7E3ADC5B1C96734B9BA6E5033D1FEEF2F5FF74E SWAP7 RETURN SGT PUSH28 0x9D7CB0145A64736F6C63430008130033000000000000000000000000 "},"methodIdentifiers":{"balanceOf()":"722713f7","divTotalShares(uint256)":"4477cf7e","init(uint256,uint256,uint256)":"8cd8db8a","mulResult()":"425fbb68","newBalanceOf()":"b2daa4d0","shares()":"03314efa","sharesOf(uint256)":"878ecfec","totalShares()":"3a98ef39","totalSupply()":"18160ddd"}},"storageLayout":{"storage":[{"astId":9,"contract":"contracts/BalanceCalc.sol:BalanceCalc","label":"totalShares","offset":0,"slot":"0","type":"t_uint256"},{"astId":12,"contract":"contracts/BalanceCalc.sol:BalanceCalc","label":"totalSupply","offset":0,"slot":"1","type":"t_uint256"},{"astId":15,"contract":"contracts/BalanceCalc.sol:BalanceCalc","label":"shares","offset":0,"slot":"2","type":"t_uint256"}],"types":{"t_uint256":{"encoding":"inplace","label":"uint256","numberOfBytes":"32"}}}}}}