{
  "_format": "hh-sol-artifact-1",
  "contractName": "BalanceCalc",
  "sourceName": "contracts/BalanceCalc.sol",
  "abi": [
    {
      "anonymous": false,
      "inputs": [
        {
          "indexed": false,
          "internalType": "uint256",
          "name": "shares",
          "type": "uint256"
        },
        {
          "indexed": false,
          "internalType": "uint256",
          "name": "amount",
          "type": "uint256"
        },
        {
          "indexed": false,
          "internalType": "uint256",
          "name": "totalShares",
          "type": "uint256"
        },
        {
          "indexed": false,
          "internalType": "uint256",
          "name": "totalSupply",
          "type": "uint256"
        }
      ],
      "name": "DepositEvent",
      "type": "event"
    },
    {
      "anonymous": false,
      "inputs": [
        {
          "indexed": false,
          "internalType": "address",
          "name": "sender",
          "type": "address"
        }
      ],
      "name": "TokenEvent",
      "type": "event"
    },
    {
      "anonymous": false,
      "inputs": [
        {
          "indexed": false,
          "internalType": "uint256",
          "name": "shares",
          "type": "uint256"
        },
        {
          "indexed": false,
          "internalType": "uint256",
          "name": "amount",
          "type": "uint256"
        },
        {
          "indexed": false,
          "internalType": "uint256",
          "name": "totalShares",
          "type": "uint256"
        },
        {
          "indexed": false,
          "internalType": "uint256",
          "name": "totalSupply",
          "type": "uint256"
        }
      ],
      "name": "WithdrawEvent",
      "type": "event"
    },
    {
      "inputs": [
        {
          "internalType": "uint256",
          "name": "shares",
          "type": "uint256"
        }
      ],
      "name": "balanceOf",
      "outputs": [
        {
          "internalType": "uint256",
          "name": "",
          "type": "uint256"
        }
      ],
      "stateMutability": "view",
      "type": "function"
    },
    {
      "inputs": [
        {
          "internalType": "uint256",
          "name": "amount",
          "type": "uint256"
        }
      ],
      "name": "deposit",
      "outputs": [
        {
          "internalType": "uint256",
          "name": "",
          "type": "uint256"
        }
      ],
      "stateMutability": "nonpayable",
      "type": "function"
    },
    {
      "inputs": [
        {
          "internalType": "uint256",
          "name": "_totalShares",
          "type": "uint256"
        },
        {
          "internalType": "uint256",
          "name": "_totalSupply",
          "type": "uint256"
        }
      ],
      "name": "init",
      "outputs": [],
      "stateMutability": "nonpayable",
      "type": "function"
    },
    {
      "inputs": [
        {
          "internalType": "uint256",
          "name": "amount",
          "type": "uint256"
        }
      ],
      "name": "sharesOf",
      "outputs": [
        {
          "internalType": "uint256",
          "name": "",
          "type": "uint256"
        }
      ],
      "stateMutability": "view",
      "type": "function"
    },
    {
      "inputs": [],
      "name": "totalShares",
      "outputs": [
        {
          "internalType": "uint256",
          "name": "",
          "type": "uint256"
        }
      ],
      "stateMutability": "view",
      "type": "function"
    },
    {
      "inputs": [],
      "name": "totalSupply",
      "outputs": [
        {
          "internalType": "uint256",
          "name": "",
          "type": "uint256"
        }
      ],
      "stateMutability": "view",
      "type": "function"
    },
    {
      "inputs": [
        {
          "internalType": "uint256",
          "name": "shares",
          "type": "uint256"
        }
      ],
      "name": "withdraw",
      "outputs": [
        {
          "internalType": "uint256",
          "name": "",
          "type": "uint256"
        }
      ],
      "stateMutability": "nonpayable",
      "type": "function"
    }
  ],
  "bytecode": "0x6080806040523461001f5760008055600060015561034290816100258239f35b600080fdfe6080604052600436101561001257600080fd5b6000803560e01c90816318160ddd1461008a575080632e1a7d4d146100855780633a98ef3914610080578063878ecfec1461007b5780639cc7f70814610076578063a5843f08146100715763b6b55f251461006c57600080fd5b6101fd565b6101ce565b6101a1565b61016c565b61014e565b6100a9565b346100a657806003193601126100a65760015460805260206080f35b80fd5b34610149576020366003190112610149576004356001546100ca81836102aa565b6100d760005480926102e6565b918382039182116101445781600055828103908111610144576001819055604080519485526020858101859052908501929092526060840152917f1bee28e820b283a990f1297f8cd61b80000e87cf5a878a2ed5f484c015dffb9d9080608081015b0390a1604051908152f35b610294565b600080fd5b34610149576000366003190112610149576020600054604051908152f35b346101495760203660031901126101495760206101996101906000546004356102aa565b600154906102e6565b604051908152f35b346101495760203660031901126101495760206101996101c56001546004356102aa565b600054906102e6565b3461014957604036600319011261014957633b9aca006004358181029182040361014957600055602435600155005b346101495760203660031901126101495760043560005461021e81836102aa565b61022b60015480926102e6565b91828101809111610144578060005583820180921161014457602093610139837f18df69d18fe05d45c1ebb9d5dfaa4613529460815445aa1ffd136357f6248f6f9460015560405193849387859094939260609260808301968352602083015260408201520152565b634e487b7160e01b600052601160045260246000fd5b816b019d971e4fe8401e74000000190481111582151715610149576b033b2e3c9fd0803ce800000091026b019d971e4fe8401e74000000010490565b8160011c906b033b2e3c9fd0803ce800000090818319048111841517610149570201049056fea2646970667358221220dd5974ccf81bbce4165ea6d213332354701a8515cdf36fcc68380249013220e964736f6c63430008130033",
  "linkReferences": {},
  "deployedLinkReferences": {}
}